:060000000A128A11EE2F26
:100D8800FF347F343F341F340F34073403340134C5
:100D98000034FE34FC34F834F034E034C0348034A9
:100DA80000347E088A007F0882000A128A11D5263C
:100DB8000A128A118000840A04087D060319003487
:100DC800FF0A0319FE0AD92E831603139F0188010F
:100DD80003308600FF308312031388008312031345
:100DE800061CF72EF82E012F8230F600DD30F500B4
:100DF800F50BFC2EF60BFC2E012F83120313061C99
:100E0800062F072F0C2F0A128A112A270A128A1175
:100E180083120313861C112F122F1B2F8230F6000A
:100E2800DD30F500F50B162FF60B162F1B2F83124E
:100E38000313861C202F212FF22E0A128A118C27C9
:100E48000A128A11F22E0A128A110028F301F401FB
:100E58007308293E84008313000883120313880053
:100E68000330F2008A30F1005530F000F00B3A2FD1
:100E7800F10B3A2FF20B3A2F412F7408803AFF00FA
:100E880080307F02031D4A2F08307302031C4D2F48
:100E98004E2F782FF301F4017308203E840083134A
:100EA80000098312031388000330F2008A30F1002E
:100EB8005530F000F00B5E2FF10B5E2FF20B5E2F1A
:100EC800652F0130F3070318F40A0030F40774089B
:100ED800803AFF0080307F02031D742F09307302AF
:100EE800031C772F782F502F0130F3070318F40ACB
:100EF8000030F4077408803AFF0080307F02031D39
:100F0800872F09307302031C8A2F8B2F2C2F080080
:100F1800F301F4017308203E840083130008831250
:100F2800031388000330F2008A30F1005530F000D6
:100F3800F00B9C2FF10B9C2FF20B9C2FA32F740806
:100F4800803AFF0080307F02031DAC2F0830730207
:100F5800031CAF2FB02FDA2FF301F4017308293ED9
:100F68008400831300098312031388000330F200FE
:100F78008A30F1005530F000F00BC02FF10BC02F74
:100F8800F20BC02FC72F0130F3070318F40A003003
:100F9800F4077408803AFF0080307F02031DD62FC3
:100FA80009307302031CD92FDA2FB22F0130F3074F
:100FB8000318F40A0030F4077408803AFF00803000
:100FC8007F02031DE92F09307302031CEC2FED2F5C
:100FD8008E2F080083133130FD000630FE00C43028
:100FE800FF00203084000A128A11D9260A128A11B9
:080FF80083010A128A11E82EA0
:02400E00F23F7F
:00000001FF
